{
  "_format": "hh-sol-artifact-1",
  "contractName": "AckToEarn",
  "sourceName": "contracts/AckToEarn.sol",
  "abi": [
    {
      "anonymous": false,
      "inputs": [
        {
          "indexed": true,
          "internalType": "address",
          "name": "from",
          "type": "address"
        },
        {
          "indexed": true,
          "internalType": "address",
          "name": "to",
          "type": "address"
        },
        {
          "indexed": false,
          "internalType": "uint256",
          "name": "amount",
          "type": "uint256"
        }
      ],
      "name": "NewBid",
      "type": "event"
    },
    {
      "anonymous": false,
      "inputs": [
        {
          "indexed": true,
          "internalType": "address",
          "name": "previousOwner",
          "type": "address"
        },
        {
          "indexed": true,
          "internalType": "address",
          "name": "newOwner",
          "type": "address"
        }
      ],
      "name": "OwnershipTransferred",
      "type": "event"
    },
    {
      "inputs": [
        {
          "internalType": "address",
          "name": "recipient",
          "type": "address"
        }
      ],
      "name": "getRecipientUnclaimedBalance",
      "outputs": [
        {
          "internalType": "uint256",
          "name": "",
          "type": "uint256"
        }
      ],
      "stateMutability": "view",
      "type": "function"
    },
    {
      "inputs": [],
      "name": "owner",
      "outputs": [
        {
          "internalType": "address",
          "name": "",
          "type": "address"
        }
      ],
      "stateMutability": "view",
      "type": "function"
    },
    {
      "inputs": [],
      "name": "renounceOwnership",
      "outputs": [],
      "stateMutability": "nonpayable",
      "type": "function"
    },
    {
      "inputs": [
        {
          "internalType": "string",
          "name": "message",
          "type": "string"
        },
        {
          "internalType": "address",
          "name": "recipient",
          "type": "address"
        }
      ],
      "name": "sendBid",
      "outputs": [],
      "stateMutability": "payable",
      "type": "function"
    },
    {
      "inputs": [
        {
          "internalType": "address",
          "name": "newOwner",
          "type": "address"
        }
      ],
      "name": "transferOwnership",
      "outputs": [],
      "stateMutability": "nonpayable",
      "type": "function"
    }
  ],
  "bytecode": "0x608060405234801561001057600080fd5b5061002d61002261003260201b60201c565b61003a60201b60201c565b6100fe565b600033905090565b60008060009054906101000a900473ffffffffffffffffffffffffffffffffffffffff169050816000806101000a81548173ffffffffffffffffffffffffffffffffffffffff021916908373ffffffffffffffffffffffffffffffffffffffff1602179055508173ffffffffffffffffffffffffffffffffffffffff168173ffffffffffffffffffffffffffffffffffffffff167f8be0079c531659141344cd1fd0a4f28419497f9722a3daafe3b4186f6b6457e060405160405180910390a35050565b610df18061010d6000396000f3fe60806040526004361061004a5760003560e01c80636073acd41461004f578063715018a61461006b5780638da5cb5b14610082578063dacb3122146100ad578063f2fde38b146100ea575b600080fd5b61006960048036038101906100649190610993565b610113565b005b34801561007757600080fd5b506100806104e4565b005b34801561008e57600080fd5b506100976104f8565b6040516100a491906109fe565b60405180910390f35b3480156100b957600080fd5b506100d460048036038101906100cf9190610a19565b610521565b6040516100e19190610a5f565b60405180910390f35b3480156100f657600080fd5b50610111600480360381019061010c9190610a19565b61056a565b005b600073ffffffffffffffffffffffffffffffffffffffff168173ffffffffffffffffffffffffffffffffffffffff161415610183576040517f08c379a000000000000000000000000000000000000000000000000000000000815260040161017a90610afd565b60405180910390fd5b60006064605a346101949190610b4c565b61019e9190610bd5565b9050600160003373ffffffffffffffffffffffffffffffffffffffff1673ffffffffffffffffffffffffffffffffffffffff1681526020019081526020016000206040518060a001604052803373ffffffffffffffffffffffffffffffffffffffff16815260200134815260200185815260200142815260200160001515815250908060018154018082558091505060019003906000526020600020906005020160009091909190915060008201518160000160006101000a81548173ffffffffffffffffffffffffffffffffffffffff021916908373ffffffffffffffffffffffffffffffffffffffff1602179055506020820151816001015560408201518160020190805190602001906102b5929190610738565b506060820151816003015560808201518160040160006101000a81548160ff0219169083151502179055505050600260008373ffffffffffffffffffffffffffffffffffffffff1673ffffffffffffffffffffffffffffffffffffffff1681526020019081526020016000206040518060a001604052803373ffffffffffffffffffffffffffffffffffffffff16815260200134815260200185815260200142815260200160001515815250908060018154018082558091505060019003906000526020600020906005020160009091909190915060008201518160000160006101000a81548173ffffffffffffffffffffffffffffffffffffffff021916908373ffffffffffffffffffffffffffffffffffffffff1602179055506020820151816001015560408201518160020190805190602001906103f7929190610738565b506060820151816003015560808201518160040160006101000a81548160ff021916908315150217905550505080600360008473ffffffffffffffffffffffffffffffffffffffff1673ffffffffffffffffffffffffffffffffffffffff16815260200190815260200160002060008282546104739190610c06565b925050819055508173ffffffffffffffffffffffffffffffffffffffff163373ffffffffffffffffffffffffffffffffffffffff167f4e2c9b2f86fd561afda880d19abdddbf8768a7c65d31285d59fa4f162fc9bcfa346040516104d79190610a5f565b60405180910390a3505050565b6104ec6105ee565b6104f6600061066c565b565b60008060009054906101000a900473ffffffffffffffffffffffffffffffffffffffff16905090565b6000600360008373ffffffffffffffffffffffffffffffffffffffff1673ffffffffffffffffffffffffffffffffffffffff168152602001908152602001600020549050919050565b6105726105ee565b600073ffffffffffffffffffffffffffffffffffffffff168173ffffffffffffffffffffffffffffffffffffffff1614156105e2576040517f08c379a00000000000000000000000000000000000000000000000000000000081526004016105d990610cce565b60405180910390fd5b6105eb8161066c565b50565b6105f6610730565b73ffffffffffffffffffffffffffffffffffffffff166106146104f8565b73ffffffffffffffffffffffffffffffffffffffff161461066a576040517f08c379a000000000000000000000000000000000000000000000000000000000815260040161066190610d3a565b60405180910390fd5b565b60008060009054906101000a900473ffffffffffffffffffffffffffffffffffffffff169050816000806101000a81548173ffffffffffffffffffffffffffffffffffffffff021916908373ffffffffffffffffffffffffffffffffffffffff1602179055508173ffffffffffffffffffffffffffffffffffffffff168173ffffffffffffffffffffffffffffffffffffffff167f8be0079c531659141344cd1fd0a4f28419497f9722a3daafe3b4186f6b6457e060405160405180910390a35050565b600033905090565b82805461074490610d89565b90600052602060002090601f01602090048101928261076657600085556107ad565b82601f1061077f57805160ff19168380011785556107ad565b828001600101855582156107ad579182015b828111156107ac578251825591602001919060010190610791565b5b5090506107ba91906107be565b5090565b5b808211156107d75760008160009055506001016107bf565b5090565b6000604051905090565b600080fd5b600080fd5b600080fd5b600080fd5b6000601f19601f8301169050919050565b7f4e487b7100000000000000000000000000000000000000000000000000000000600052604160045260246000fd5b610842826107f9565b810181811067ffffffffffffffff821117156108615761086061080a565b5b80604052505050565b60006108746107db565b90506108808282610839565b919050565b600067ffffffffffffffff8211156108a05761089f61080a565b5b6108a9826107f9565b9050602081019050919050565b82818337600083830152505050565b60006108d86108d384610885565b61086a565b9050828152602081018484840111156108f4576108f36107f4565b5b6108ff8482856108b6565b509392505050565b600082601f83011261091c5761091b6107ef565b5b813561092c8482602086016108c5565b91505092915050565b600073ffffffffffffffffffffffffffffffffffffffff82169050919050565b600061096082610935565b9050919050565b61097081610955565b811461097b57600080fd5b50565b60008135905061098d81610967565b92915050565b600080604083850312156109aa576109a96107e5565b5b600083013567ffffffffffffffff8111156109c8576109c76107ea565b5b6109d485828601610907565b92505060206109e58582860161097e565b9150509250929050565b6109f881610955565b82525050565b6000602082019050610a1360008301846109ef565b92915050565b600060208284031215610a2f57610a2e6107e5565b5b6000610a3d8482850161097e565b91505092915050565b6000819050919050565b610a5981610a46565b82525050565b6000602082019050610a746000830184610a50565b92915050565b600082825260208201905092915050565b7f526563697069656e742063616e6e6f7420626520746865207a65726f2061646460008201527f7265737300000000000000000000000000000000000000000000000000000000602082015250565b6000610ae7602483610a7a565b9150610af282610a8b565b604082019050919050565b60006020820190508181036000830152610b1681610ada565b9050919050565b7f4e487b7100000000000000000000000000000000000000000000000000000000600052601160045260246000fd5b6000610b5782610a46565b9150610b6283610a46565b9250817fffffffffffffffffffffffffffffffffffffffffffffffffffffffffffffffff0483118215151615610b9b57610b9a610b1d565b5b828202905092915050565b7f4e487b7100000000000000000000000000000000000000000000000000000000600052601260045260246000fd5b6000610be082610a46565b9150610beb83610a46565b925082610bfb57610bfa610ba6565b5b828204905092915050565b6000610c1182610a46565b9150610c1c83610a46565b9250827fffffffffffffffffffffffffffffffffffffffffffffffffffffffffffffffff03821115610c5157610c50610b1d565b5b828201905092915050565b7f4f776e61626c653a206e6577206f776e657220697320746865207a65726f206160008201527f6464726573730000000000000000000000000000000000000000000000000000602082015250565b6000610cb8602683610a7a565b9150610cc382610c5c565b604082019050919050565b60006020820190508181036000830152610ce781610cab565b9050919050565b7f4f776e61626c653a2063616c6c6572206973206e6f7420746865206f776e6572600082015250565b6000610d24602083610a7a565b9150610d2f82610cee565b602082019050919050565b60006020820190508181036000830152610d5381610d17565b9050919050565b7f4e487b7100000000000000000000000000000000000000000000000000000000600052602260045260246000fd5b60006002820490506001821680610da157607f821691505b60208210811415610db557610db4610d5a565b5b5091905056fea2646970667358221220b696e9865730007ca379e29efa25a03ceb5fd131e9ad5495f9e4e07ee9e1930764736f6c63430008090033",
  "linkReferences": {},
  "deployedLinkReferences": {}
}