{
  "_format": "hh-sol-artifact-1",
  "contractName": "AckToEarn",
  "sourceName": "contracts/AckToEarn.sol",
  "abi": [
    {
      "anonymous": false,
      "inputs": [
        {
          "indexed": true,
          "internalType": "address",
          "name": "recipient",
          "type": "address"
        },
        {
          "indexed": false,
          "internalType": "uint256",
          "name": "bidId",
          "type": "uint256"
        }
      ],
      "name": "BidClaimed",
      "type": "event"
    },
    {
      "anonymous": false,
      "inputs": [
        {
          "indexed": true,
          "internalType": "address",
          "name": "bidder",
          "type": "address"
        },
        {
          "indexed": false,
          "internalType": "uint256",
          "name": "amount",
          "type": "uint256"
        }
      ],
      "name": "BidReclaimed",
      "type": "event"
    },
    {
      "anonymous": false,
      "inputs": [
        {
          "indexed": true,
          "internalType": "address",
          "name": "account",
          "type": "address"
        },
        {
          "indexed": false,
          "internalType": "uint256",
          "name": "amount",
          "type": "uint256"
        }
      ],
      "name": "FundsWithdrawn",
      "type": "event"
    },
    {
      "anonymous": false,
      "inputs": [
        {
          "indexed": true,
          "internalType": "address",
          "name": "from",
          "type": "address"
        },
        {
          "indexed": true,
          "internalType": "address",
          "name": "to",
          "type": "address"
        },
        {
          "indexed": false,
          "internalType": "uint256",
          "name": "amount",
          "type": "uint256"
        }
      ],
      "name": "NewBid",
      "type": "event"
    },
    {
      "anonymous": false,
      "inputs": [
        {
          "indexed": true,
          "internalType": "address",
          "name": "previousOwner",
          "type": "address"
        },
        {
          "indexed": true,
          "internalType": "address",
          "name": "newOwner",
          "type": "address"
        }
      ],
      "name": "OwnershipTransferred",
      "type": "event"
    },
    {
      "inputs": [
        {
          "internalType": "address",
          "name": "",
          "type": "address"
        }
      ],
      "name": "balances",
      "outputs": [
        {
          "internalType": "uint256",
          "name": "",
          "type": "uint256"
        }
      ],
      "stateMutability": "view",
      "type": "function"
    },
    {
      "inputs": [
        {
          "internalType": "uint256",
          "name": "",
          "type": "uint256"
        }
      ],
      "name": "bids",
      "outputs": [
        {
          "internalType": "uint256",
          "name": "id",
          "type": "uint256"
        },
        {
          "internalType": "address",
          "name": "bidder",
          "type": "address"
        },
        {
          "internalType": "address",
          "name": "recipient",
          "type": "address"
        },
        {
          "internalType": "uint256",
          "name": "recipientAmount",
          "type": "uint256"
        },
        {
          "internalType": "uint256",
          "name": "timestamp",
          "type": "uint256"
        },
        {
          "internalType": "string",
          "name": "message",
          "type": "string"
        },
        {
          "internalType": "bool",
          "name": "claimed",
          "type": "bool"
        },
        {
          "internalType": "bool",
          "name": "exists",
          "type": "bool"
        }
      ],
      "stateMutability": "view",
      "type": "function"
    },
    {
      "inputs": [
        {
          "internalType": "uint256",
          "name": "bidId",
          "type": "uint256"
        }
      ],
      "name": "claimBid",
      "outputs": [],
      "stateMutability": "nonpayable",
      "type": "function"
    },
    {
      "inputs": [],
      "name": "getBids",
      "outputs": [
        {
          "components": [
            {
              "internalType": "uint256",
              "name": "id",
              "type": "uint256"
            },
            {
              "internalType": "address",
              "name": "bidder",
              "type": "address"
            },
            {
              "internalType": "address",
              "name": "recipient",
              "type": "address"
            },
            {
              "internalType": "uint256",
              "name": "recipientAmount",
              "type": "uint256"
            },
            {
              "internalType": "uint256",
              "name": "timestamp",
              "type": "uint256"
            },
            {
              "internalType": "string",
              "name": "message",
              "type": "string"
            },
            {
              "internalType": "bool",
              "name": "claimed",
              "type": "bool"
            },
            {
              "internalType": "bool",
              "name": "exists",
              "type": "bool"
            }
          ],
          "internalType": "struct AckToEarn.Bid[]",
          "name": "",
          "type": "tuple[]"
        }
      ],
      "stateMutability": "view",
      "type": "function"
    },
    {
      "inputs": [
        {
          "internalType": "address",
          "name": "",
          "type": "address"
        }
      ],
      "name": "minimumPaymentAmounts",
      "outputs": [
        {
          "internalType": "uint256",
          "name": "",
          "type": "uint256"
        }
      ],
      "stateMutability": "view",
      "type": "function"
    },
    {
      "inputs": [],
      "name": "owner",
      "outputs": [
        {
          "internalType": "address",
          "name": "",
          "type": "address"
        }
      ],
      "stateMutability": "view",
      "type": "function"
    },
    {
      "inputs": [
        {
          "internalType": "uint256[]",
          "name": "bidIdsToReclaim",
          "type": "uint256[]"
        }
      ],
      "name": "reclaimBids",
      "outputs": [],
      "stateMutability": "nonpayable",
      "type": "function"
    },
    {
      "inputs": [],
      "name": "renounceOwnership",
      "outputs": [],
      "stateMutability": "nonpayable",
      "type": "function"
    },
    {
      "inputs": [
        {
          "internalType": "string",
          "name": "message",
          "type": "string"
        },
        {
          "internalType": "address",
          "name": "recipient",
          "type": "address"
        }
      ],
      "name": "sendBid",
      "outputs": [],
      "stateMutability": "payable",
      "type": "function"
    },
    {
      "inputs": [
        {
          "internalType": "uint256",
          "name": "amount",
          "type": "uint256"
        }
      ],
      "name": "setMinimumPaymentAmount",
      "outputs": [],
      "stateMutability": "nonpayable",
      "type": "function"
    },
    {
      "inputs": [
        {
          "internalType": "address",
          "name": "newOwner",
          "type": "address"
        }
      ],
      "name": "transferOwnership",
      "outputs": [],
      "stateMutability": "nonpayable",
      "type": "function"
    },
    {
      "inputs": [
        {
          "internalType": "uint256",
          "name": "amount",
          "type": "uint256"
        }
      ],
      "name": "withdrawFunds",
      "outputs": [],
      "stateMutability": "nonpayable",
      "type": "function"
    }
  ],
  "bytecode": "0x60806040523480156200001157600080fd5b5062000032620000266200003f60201b60201c565b6200004760201b60201c565b600180819055506200010b565b600033905090565b60008060009054906101000a900473ffffffffffffffffffffffffffffffffffffffff169050816000806101000a81548173ffffffffffffffffffffffffffffffffffffffff021916908373ffffffffffffffffffffffffffffffffffffffff1602179055508173ffffffffffffffffffffffffffffffffffffffff168173ffffffffffffffffffffffffffffffffffffffff167f8be0079c531659141344cd1fd0a4f28419497f9722a3daafe3b4186f6b6457e060405160405180910390a35050565b612acc806200011b6000396000f3fe6080604052600436106100a75760003560e01c806379433fe71161006457806379433fe7146101b25780637a02fb9b146101db5780638da5cb5b14610204578063b81c78ec1461022f578063f2fde38b1461025a578063f310ff9614610283576100a7565b8063155dd5ee146100ac57806321113057146100d557806327e235e3146100fe5780634423c5f11461013b5780636073acd41461017f578063715018a61461019b575b600080fd5b3480156100b857600080fd5b506100d360048036038101906100ce9190611b44565b6102c0565b005b3480156100e157600080fd5b506100fc60048036038101906100f79190611b44565b610496565b005b34801561010a57600080fd5b5061012560048036038101906101209190611bcf565b610877565b6040516101329190611c0b565b60405180910390f35b34801561014757600080fd5b50610162600480360381019061015d9190611b44565b61088f565b604051610176989796959493929190611ce9565b60405180910390f35b61019960048036038101906101949190611ea3565b6109c9565b005b3480156101a757600080fd5b506101b0610fad565b005b3480156101be57600080fd5b506101d960048036038101906101d49190611b44565b610fc1565b005b3480156101e757600080fd5b5061020260048036038101906101fd9190611fc7565b611008565b005b34801561021057600080fd5b50610219611488565b6040516102269190612010565b60405180910390f35b34801561023b57600080fd5b506102446114b1565b6040516102519190612214565b60405180910390f35b34801561026657600080fd5b50610281600480360381019061027c9190611bcf565b6116a3565b005b34801561028f57600080fd5b506102aa60048036038101906102a59190611bcf565b611727565b6040516102b79190611c0b565b60405180910390f35b80600560003373ffffffffffffffffffffffffffffffffffffffff1673ffffffffffffffffffffffffffffffffffffffff168152602001908152602001600020541015610342576040517f08c379a0000000000000000000000000000000000000000000000000000000008152600401610339906122a8565b60405180910390fd5b80600560003373ffffffffffffffffffffffffffffffffffffffff1673ffffffffffffffffffffffffffffffffffffffff168152602001908152602001600020600082825461039191906122f7565b9250508190555060003373ffffffffffffffffffffffffffffffffffffffff16826040516103be9061235c565b60006040518083038185875af1925050503d80600081146103fb576040519150601f19603f3d011682016040523d82523d6000602084013e610400565b606091505b5050905080610444576040517f08c379a000000000000000000000000000000000000000000000000000000000815260040161043b906123bd565b60405180910390fd5b3373ffffffffffffffffffffffffffffffffffffffff167feaff4b37086828766ad3268786972c0cd24259d4c87a80f9d3963a3c3d999b0d8360405161048a9190611c0b565b60405180910390a25050565b6000600460003373ffffffffffffffffffffffffffffffffffffffff1673ffffffffffffffffffffffffffffffffffffffff168152602001908152602001600020600083815260200190815260200160002060405180610100016040529081600082015481526020016001820160009054906101000a900473ffffffffffffffffffffffffffffffffffffffff1673ffffffffffffffffffffffffffffffffffffffff1673ffffffffffffffffffffffffffffffffffffffff1681526020016002820160009054906101000a900473ffffffffffffffffffffffffffffffffffffffff1673ffffffffffffffffffffffffffffffffffffffff1673ffffffffffffffffffffffffffffffffffffffff16815260200160038201548152602001600482015481526020016005820180546105ce9061240c565b80601f01602080910402602001604051908101604052809291908181526020018280546105fa9061240c565b80156106475780601f1061061c57610100808354040283529160200191610647565b820191906000526020600020905b81548152906001019060200180831161062a57829003601f168201915b505050505081526020016006820160009054906101000a900460ff161515151581526020016006820160019054906101000a900460ff16151515158152505090508060e001516106cc576040517f08c379a00000000000000000000000000000000000000000000000000000000081526004016106c39061248a565b60405180910390fd5b8060c0015115610711576040517f08c379a00000000000000000000000000000000000000000000000000000000081526004016107089061251c565b60405180910390fd5b61071b823361173f565b1561075b576040517f08c379a000000000000000000000000000000000000000000000000000000000815260040161075290612588565b60405180910390fd5b6001600460003373ffffffffffffffffffffffffffffffffffffffff1673ffffffffffffffffffffffffffffffffffffffff168152602001908152602001600020600084815260200190815260200160002060060160006101000a81548160ff0219169083151502179055508060600151600560003373ffffffffffffffffffffffffffffffffffffffff1673ffffffffffffffffffffffffffffffffffffffff168152602001908152602001600020600082825461081a91906125a8565b925050819055503373ffffffffffffffffffffffffffffffffffffffff167fc985de3b2a6784f499ee2c2798fd09c449da7c0a593d93274a11e1162b9fdc6e826060015160405161086b9190611c0b565b60405180910390a25050565b60056020528060005260406000206000915090505481565b6007818154811061089f57600080fd5b90600052602060002090600702016000915090508060000154908060010160009054906101000a900473ffffffffffffffffffffffffffffffffffffffff16908060020160009054906101000a900473ffffffffffffffffffffffffffffffffffffffff16908060030154908060040154908060050180546109209061240c565b80601f016020809104026020016040519081016040528092919081815260200182805461094c9061240c565b80156109995780601f1061096e57610100808354040283529160200191610999565b820191906000526020600020905b81548152906001019060200180831161097c57829003601f168201915b5050505050908060060160009054906101000a900460ff16908060060160019054906101000a900460ff16905088565b600073ffffffffffffffffffffffffffffffffffffffff168173ffffffffffffffffffffffffffffffffffffffff161415610a39576040517f08c379a0000000000000000000000000000000000000000000000000000000008152600401610a3090612670565b60405180910390fd5b600660008273ffffffffffffffffffffffffffffffffffffffff1673ffffffffffffffffffffffffffffffffffffffff16815260200190815260200160002054341015610abb576040517f08c379a0000000000000000000000000000000000000000000000000000000008152600401610ab290612702565b60405180910390fd5b6000610ac760026118ff565b905060006040518061010001604052808381526020013373ffffffffffffffffffffffffffffffffffffffff1681526020018473ffffffffffffffffffffffffffffffffffffffff1681526020016064605a34610b249190612722565b610b2e91906127ab565b815260200142815260200185815260200160001515815260200160011515815250905060078190806001815401808255809150506001900390600052602060002090600702016000909190919091506000820151816000015560208201518160010160006101000a81548173ffffffffffffffffffffffffffffffffffffffff021916908373ffffffffffffffffffffffffffffffffffffffff16021790555060408201518160020160006101000a81548173ffffffffffffffffffffffffffffffffffffffff021916908373ffffffffffffffffffffffffffffffffffffffff160217905550606082015181600301556080820151816004015560a0820151816005019080519060200190610c45929190611a57565b5060c08201518160060160006101000a81548160ff02191690831515021790555060e08201518160060160016101000a81548160ff021916908315150217905550505080600360003373ffffffffffffffffffffffffffffffffffffffff1673ffffffffffffffffffffffffffffffffffffffff16815260200190815260200160002060008481526020019081526020016000206000820151816000015560208201518160010160006101000a81548173ffffffffffffffffffffffffffffffffffffffff021916908373ffffffffffffffffffffffffffffffffffffffff16021790555060408201518160020160006101000a81548173ffffffffffffffffffffffffffffffffffffffff021916908373ffffffffffffffffffffffffffffffffffffffff160217905550606082015181600301556080820151816004015560a0820151816005019080519060200190610da1929190611a57565b5060c08201518160060160006101000a81548160ff02191690831515021790555060e08201518160060160016101000a81548160ff02191690831515021790555090505080600460008573ffffffffffffffffffffffffffffffffffffffff1673ffffffffffffffffffffffffffffffffffffffff16815260200190815260200160002060008481526020019081526020016000206000820151816000015560208201518160010160006101000a81548173ffffffffffffffffffffffffffffffffffffffff021916908373ffffffffffffffffffffffffffffffffffffffff16021790555060408201518160020160006101000a81548173ffffffffffffffffffffffffffffffffffffffff021916908373ffffffffffffffffffffffffffffffffffffffff160217905550606082015181600301556080820151816004015560a0820151816005019080519060200190610efe929190611a57565b5060c08201518160060160006101000a81548160ff02191690831515021790555060e08201518160060160016101000a81548160ff0219169083151502179055509050508273ffffffffffffffffffffffffffffffffffffffff163373ffffffffffffffffffffffffffffffffffffffff167f4e2c9b2f86fd561afda880d19abdddbf8768a7c65d31285d59fa4f162fc9bcfa34604051610f9f9190611c0b565b60405180910390a350505050565b610fb561190d565b610fbf600061198b565b565b80600660003373ffffffffffffffffffffffffffffffffffffffff1673ffffffffffffffffffffffffffffffffffffffff1681526020019081526020016000208190555050565b6002600154141561104e576040517f08c379a000000000000000000000000000000000000000000000000000000000815260040161104590612828565b60405180910390fd5b60026001819055506000805b825181101561133e57600083828151811061107857611077612848565b5b602002602001015190506000600360003373ffffffffffffffffffffffffffffffffffffffff1673ffffffffffffffffffffffffffffffffffffffff168152602001908152602001600020600083815260200190815260200160002060405180610100016040529081600082015481526020016001820160009054906101000a900473ffffffffffffffffffffffffffffffffffffffff1673ffffffffffffffffffffffffffffffffffffffff1673ffffffffffffffffffffffffffffffffffffffff1681526020016002820160009054906101000a900473ffffffffffffffffffffffffffffffffffffffff1673ffffffffffffffffffffffffffffffffffffffff1673ffffffffffffffffffffffffffffffffffffffff16815260200160038201548152602001600482015481526020016005820180546111ba9061240c565b80601f01602080910402602001604051908101604052809291908181526020018280546111e69061240c565b80156112335780601f1061120857610100808354040283529160200191611233565b820191906000526020600020905b81548152906001019060200180831161121657829003601f168201915b505050505081526020016006820160009054906101000a900460ff161515151581526020016006820160019054906101000a900460ff16151515158152505090508060e0015161128457505061132b565b8060c001511561129557505061132b565b61129f823361173f565b6112aa57505061132b565b8060600151846112ba91906125a8565b93506001600360003373ffffffffffffffffffffffffffffffffffffffff1673ffffffffffffffffffffffffffffffffffffffff168152602001908152602001600020600084815260200190815260200160002060060160006101000a81548160ff02191690831515021790555050505b808061133690612877565b91505061105a565b5060008111611382576040517f08c379a00000000000000000000000000000000000000000000000000000000081526004016113799061290c565b60405180910390fd5b60003373ffffffffffffffffffffffffffffffffffffffff16826040516113a89061235c565b60006040518083038185875af1925050503d80600081146113e5576040519150601f19603f3d011682016040523d82523d6000602084013e6113ea565b606091505b505090508061142e576040517f08c379a000000000000000000000000000000000000000000000000000000000815260040161142590612978565b60405180910390fd5b3373ffffffffffffffffffffffffffffffffffffffff167f6db4cad4c530c15347c1325192b888d9a2ea82878f2d14258a36e3a1ce008472836040516114749190611c0b565b60405180910390a250506001808190555050565b60008060009054906101000a900473ffffffffffffffffffffffffffffffffffffffff16905090565b60606007805480602002602001604051908101604052809291908181526020016000905b8282101561169a578382906000526020600020906007020160405180610100016040529081600082015481526020016001820160009054906101000a900473ffffffffffffffffffffffffffffffffffffffff1673ffffffffffffffffffffffffffffffffffffffff1673ffffffffffffffffffffffffffffffffffffffff1681526020016002820160009054906101000a900473ffffffffffffffffffffffffffffffffffffffff1673ffffffffffffffffffffffffffffffffffffffff1673ffffffffffffffffffffffffffffffffffffffff16815260200160038201548152602001600482015481526020016005820180546115d39061240c565b80601f01602080910402602001604051908101604052809291908181526020018280546115ff9061240c565b801561164c5780601f106116215761010080835404028352916020019161164c565b820191906000526020600020905b81548152906001019060200180831161162f57829003601f168201915b505050505081526020016006820160009054906101000a900460ff161515151581526020016006820160019054906101000a900460ff161515151581525050815260200190600101906114d5565b50505050905090565b6116ab61190d565b600073ffffffffffffffffffffffffffffffffffffffff168173ffffffffffffffffffffffffffffffffffffffff16141561171b576040517f08c379a000000000000000000000000000000000000000000000000000000000815260040161171290612a0a565b60405180910390fd5b6117248161198b565b50565b60066020528060005260406000206000915090505481565b600080600360008473ffffffffffffffffffffffffffffffffffffffff1673ffffffffffffffffffffffffffffffffffffffff168152602001908152602001600020600085815260200190815260200160002060060160019054906101000a900460ff1690506000600460008573ffffffffffffffffffffffffffffffffffffffff1673ffffffffffffffffffffffffffffffffffffffff168152602001908152602001600020600086815260200190815260200160002060060160019054906101000a900460ff169050811561187e5762093a80600360008673ffffffffffffffffffffffffffffffffffffffff1673ffffffffffffffffffffffffffffffffffffffff16815260200190815260200160002060008781526020019081526020016000206004015461187291906125a8565b421015925050506118f9565b80156118f25762093a80600460008673ffffffffffffffffffffffffffffffffffffffff1673ffffffffffffffffffffffffffffffffffffffff1681526020019081526020016000206000878152602001908152602001600020600401546118e691906125a8565b421015925050506118f9565b6001925050505b92915050565b600081600001549050919050565b611915611a4f565b73ffffffffffffffffffffffffffffffffffffffff16611933611488565b73ffffffffffffffffffffffffffffffffffffffff1614611989576040517f08c379a000000000000000000000000000000000000000000000000000000000815260040161198090612a76565b60405180910390fd5b565b60008060009054906101000a900473ffffffffffffffffffffffffffffffffffffffff169050816000806101000a81548173ffffffffffffffffffffffffffffffffffffffff021916908373ffffffffffffffffffffffffffffffffffffffff1602179055508173ffffffffffffffffffffffffffffffffffffffff168173ffffffffffffffffffffffffffffffffffffffff167f8be0079c531659141344cd1fd0a4f28419497f9722a3daafe3b4186f6b6457e060405160405180910390a35050565b600033905090565b828054611a639061240c565b90600052602060002090601f016020900481019282611a855760008555611acc565b82601f10611a9e57805160ff1916838001178555611acc565b82800160010185558215611acc579182015b82811115611acb578251825591602001919060010190611ab0565b5b509050611ad99190611add565b5090565b5b80821115611af6576000816000905550600101611ade565b5090565b6000604051905090565b600080fd5b600080fd5b6000819050919050565b611b2181611b0e565b8114611b2c57600080fd5b50565b600081359050611b3e81611b18565b92915050565b600060208284031215611b5a57611b59611b04565b5b6000611b6884828501611b2f565b91505092915050565b600073ffffffffffffffffffffffffffffffffffffffff82169050919050565b6000611b9c82611b71565b9050919050565b611bac81611b91565b8114611bb757600080fd5b50565b600081359050611bc981611ba3565b92915050565b600060208284031215611be557611be4611b04565b5b6000611bf384828501611bba565b91505092915050565b611c0581611b0e565b82525050565b6000602082019050611c206000830184611bfc565b92915050565b611c2f81611b91565b82525050565b600081519050919050565b600082825260208201905092915050565b60005b83811015611c6f578082015181840152602081019050611c54565b83811115611c7e576000848401525b50505050565b6000601f19601f8301169050919050565b6000611ca082611c35565b611caa8185611c40565b9350611cba818560208601611c51565b611cc381611c84565b840191505092915050565b60008115159050919050565b611ce381611cce565b82525050565b600061010082019050611cff600083018b611bfc565b611d0c602083018a611c26565b611d196040830189611c26565b611d266060830188611bfc565b611d336080830187611bfc565b81810360a0830152611d458186611c95565b9050611d5460c0830185611cda565b611d6160e0830184611cda565b9998505050505050505050565b600080fd5b600080fd5b7f4e487b7100000000000000000000000000000000000000000000000000000000600052604160045260246000fd5b611db082611c84565b810181811067ffffffffffffffff82111715611dcf57611dce611d78565b5b80604052505050565b6000611de2611afa565b9050611dee8282611da7565b919050565b600067ffffffffffffffff821115611e0e57611e0d611d78565b5b611e1782611c84565b9050602081019050919050565b82818337600083830152505050565b6000611e46611e4184611df3565b611dd8565b905082815260208101848484011115611e6257611e61611d73565b5b611e6d848285611e24565b509392505050565b600082601f830112611e8a57611e89611d6e565b5b8135611e9a848260208601611e33565b91505092915050565b60008060408385031215611eba57611eb9611b04565b5b600083013567ffffffffffffffff811115611ed857611ed7611b09565b5b611ee485828601611e75565b9250506020611ef585828601611bba565b9150509250929050565b600067ffffffffffffffff821115611f1a57611f19611d78565b5b602082029050602081019050919050565b600080fd5b6000611f43611f3e84611eff565b611dd8565b90508083825260208201905060208402830185811115611f6657611f65611f2b565b5b835b81811015611f8f5780611f7b8882611b2f565b845260208401935050602081019050611f68565b5050509392505050565b600082601f830112611fae57611fad611d6e565b5b8135611fbe848260208601611f30565b91505092915050565b600060208284031215611fdd57611fdc611b04565b5b600082013567ffffffffffffffff811115611ffb57611ffa611b09565b5b61200784828501611f99565b91505092915050565b60006020820190506120256000830184611c26565b92915050565b600081519050919050565b600082825260208201905092915050565b6000819050602082019050919050565b61206081611b0e565b82525050565b61206f81611b91565b82525050565b600082825260208201905092915050565b600061209182611c35565b61209b8185612075565b93506120ab818560208601611c51565b6120b481611c84565b840191505092915050565b6120c881611cce565b82525050565b6000610100830160008301516120e76000860182612057565b5060208301516120fa6020860182612066565b50604083015161210d6040860182612066565b5060608301516121206060860182612057565b5060808301516121336080860182612057565b5060a083015184820360a086015261214b8282612086565b91505060c083015161216060c08601826120bf565b5060e083015161217360e08601826120bf565b508091505092915050565b600061218a83836120ce565b905092915050565b6000602082019050919050565b60006121aa8261202b565b6121b48185612036565b9350836020820285016121c685612047565b8060005b8581101561220257848403895281516121e3858261217e565b94506121ee83612192565b925060208a019950506001810190506121ca565b50829750879550505050505092915050565b6000602082019050818103600083015261222e818461219f565b905092915050565b7f547269656420746f207769746864726177206d6f72652066756e64732074686160008201527f6e20746865206163636f756e7427732062616c616e6365000000000000000000602082015250565b6000612292603783611c40565b915061229d82612236565b604082019050919050565b600060208201905081810360008301526122c181612285565b9050919050565b7f4e487b7100000000000000000000000000000000000000000000000000000000600052601160045260246000fd5b600061230282611b0e565b915061230d83611b0e565b9250828210156123205761231f6122c8565b5b828203905092915050565b600081905092915050565b50565b600061234660008361232b565b915061235182612336565b600082019050919050565b600061236782612339565b9150819050919050565b7f4661696c656420746f2077697468647261772066756e64730000000000000000600082015250565b60006123a7601883611c40565b91506123b282612371565b602082019050919050565b600060208201905081810360008301526123d68161239a565b9050919050565b7f4e487b7100000000000000000000000000000000000000000000000000000000600052602260045260246000fd5b6000600282049050600182168061242457607f821691505b60208210811415612438576124376123dd565b5b50919050565b7f426964206e6f7420666f756e6400000000000000000000000000000000000000600082015250565b6000612474600d83611c40565b915061247f8261243e565b602082019050919050565b600060208201905081810360008301526124a381612467565b9050919050565b7f4269642062616c616e63652068617320616c7265616479206265656e20636c6160008201527f696d656400000000000000000000000000000000000000000000000000000000602082015250565b6000612506602483611c40565b9150612511826124aa565b604082019050919050565b60006020820190508181036000830152612535816124f9565b9050919050565b7f4269642069732065787069726564000000000000000000000000000000000000600082015250565b6000612572600e83611c40565b915061257d8261253c565b602082019050919050565b600060208201905081810360008301526125a181612565565b9050919050565b60006125b382611b0e565b91506125be83611b0e565b9250827fffffffffffffffffffffffffffffffffffffffffffffffffffffffffffffffff038211156125f3576125f26122c8565b5b828201905092915050565b7f526563697069656e742063616e6e6f7420626520746865207a65726f2061646460008201527f7265737300000000000000000000000000000000000000000000000000000000602082015250565b600061265a602483611c40565b9150612665826125fe565b604082019050919050565b600060208201905081810360008301526126898161264d565b9050919050565b7f45746865722076616c756520646f6573206e6f74206d6565742074686520726560008201527f63697069656e742773206d696e696d756d206d65737361676520616d6f756e74602082015250565b60006126ec604083611c40565b91506126f782612690565b604082019050919050565b6000602082019050818103600083015261271b816126df565b9050919050565b600061272d82611b0e565b915061273883611b0e565b9250817fffffffffffffffffffffffffffffffffffffffffffffffffffffffffffffffff0483118215151615612771576127706122c8565b5b828202905092915050565b7f4e487b7100000000000000000000000000000000000000000000000000000000600052601260045260246000fd5b60006127b682611b0e565b91506127c183611b0e565b9250826127d1576127d061277c565b5b828204905092915050565b7f5265656e7472616e637947756172643a207265656e7472616e742063616c6c00600082015250565b6000612812601f83611c40565b915061281d826127dc565b602082019050919050565b6000602082019050818103600083015261284181612805565b9050919050565b7f4e487b7100000000000000000000000000000000000000000000000000000000600052603260045260246000fd5b600061288282611b0e565b91507fffffffffffffffffffffffffffffffffffffffffffffffffffffffffffffffff8214156128b5576128b46122c8565b5b600182019050919050565b7f4e6f20657468657220746f207265636c61696d2e000000000000000000000000600082015250565b60006128f6601483611c40565b9150612901826128c0565b602082019050919050565b60006020820190508181036000830152612925816128e9565b9050919050565b7f4661696c656420746f2073656e64206574686572000000000000000000000000600082015250565b6000612962601483611c40565b915061296d8261292c565b602082019050919050565b6000602082019050818103600083015261299181612955565b9050919050565b7f4f776e61626c653a206e6577206f776e657220697320746865207a65726f206160008201527f6464726573730000000000000000000000000000000000000000000000000000602082015250565b60006129f4602683611c40565b91506129ff82612998565b604082019050919050565b60006020820190508181036000830152612a23816129e7565b9050919050565b7f4f776e61626c653a2063616c6c6572206973206e6f7420746865206f776e6572600082015250565b6000612a60602083611c40565b9150612a6b82612a2a565b602082019050919050565b60006020820190508181036000830152612a8f81612a53565b905091905056fea2646970667358221220db5bff94ed57520917eae1078848e65ddff84e3b09b52ab82af092b65f86abe464736f6c63430008090033",
  "linkReferences": {},
  "deployedLinkReferences": {}
}