{
  "_format": "hh-sol-artifact-1",
  "contractName": "AckToEarn",
  "sourceName": "contracts/AckToEarn.sol",
  "abi": [
    {
      "anonymous": false,
      "inputs": [
        {
          "indexed": true,
          "internalType": "address",
          "name": "from",
          "type": "address"
        },
        {
          "indexed": true,
          "internalType": "address",
          "name": "to",
          "type": "address"
        },
        {
          "indexed": false,
          "internalType": "uint256",
          "name": "amount",
          "type": "uint256"
        }
      ],
      "name": "NewBid",
      "type": "event"
    },
    {
      "anonymous": false,
      "inputs": [
        {
          "indexed": true,
          "internalType": "address",
          "name": "previousOwner",
          "type": "address"
        },
        {
          "indexed": true,
          "internalType": "address",
          "name": "newOwner",
          "type": "address"
        }
      ],
      "name": "OwnershipTransferred",
      "type": "event"
    },
    {
      "anonymous": false,
      "inputs": [
        {
          "indexed": true,
          "internalType": "address",
          "name": "bidder",
          "type": "address"
        },
        {
          "indexed": false,
          "internalType": "uint256",
          "name": "amount",
          "type": "uint256"
        }
      ],
      "name": "ReclaimBid",
      "type": "event"
    },
    {
      "inputs": [
        {
          "internalType": "uint256",
          "name": "",
          "type": "uint256"
        }
      ],
      "name": "bids",
      "outputs": [
        {
          "internalType": "uint256",
          "name": "id",
          "type": "uint256"
        },
        {
          "internalType": "address",
          "name": "bidder",
          "type": "address"
        },
        {
          "internalType": "address",
          "name": "recipient",
          "type": "address"
        },
        {
          "internalType": "uint256",
          "name": "amount",
          "type": "uint256"
        },
        {
          "internalType": "uint256",
          "name": "timestamp",
          "type": "uint256"
        },
        {
          "internalType": "string",
          "name": "message",
          "type": "string"
        },
        {
          "internalType": "bool",
          "name": "claimed",
          "type": "bool"
        },
        {
          "internalType": "bool",
          "name": "exists",
          "type": "bool"
        }
      ],
      "stateMutability": "view",
      "type": "function"
    },
    {
      "inputs": [],
      "name": "getBids",
      "outputs": [
        {
          "components": [
            {
              "internalType": "uint256",
              "name": "id",
              "type": "uint256"
            },
            {
              "internalType": "address",
              "name": "bidder",
              "type": "address"
            },
            {
              "internalType": "address",
              "name": "recipient",
              "type": "address"
            },
            {
              "internalType": "uint256",
              "name": "amount",
              "type": "uint256"
            },
            {
              "internalType": "uint256",
              "name": "timestamp",
              "type": "uint256"
            },
            {
              "internalType": "string",
              "name": "message",
              "type": "string"
            },
            {
              "internalType": "bool",
              "name": "claimed",
              "type": "bool"
            },
            {
              "internalType": "bool",
              "name": "exists",
              "type": "bool"
            }
          ],
          "internalType": "struct AckToEarn.Bid[]",
          "name": "",
          "type": "tuple[]"
        }
      ],
      "stateMutability": "view",
      "type": "function"
    },
    {
      "inputs": [
        {
          "internalType": "uint256",
          "name": "bidId",
          "type": "uint256"
        },
        {
          "internalType": "address",
          "name": "account",
          "type": "address"
        }
      ],
      "name": "isBidExpired",
      "outputs": [
        {
          "internalType": "bool",
          "name": "",
          "type": "bool"
        }
      ],
      "stateMutability": "view",
      "type": "function"
    },
    {
      "inputs": [],
      "name": "owner",
      "outputs": [
        {
          "internalType": "address",
          "name": "",
          "type": "address"
        }
      ],
      "stateMutability": "view",
      "type": "function"
    },
    {
      "inputs": [
        {
          "internalType": "uint256[]",
          "name": "bidIdsToReclaim",
          "type": "uint256[]"
        }
      ],
      "name": "reclaimBids",
      "outputs": [],
      "stateMutability": "nonpayable",
      "type": "function"
    },
    {
      "inputs": [],
      "name": "renounceOwnership",
      "outputs": [],
      "stateMutability": "nonpayable",
      "type": "function"
    },
    {
      "inputs": [
        {
          "internalType": "string",
          "name": "message",
          "type": "string"
        },
        {
          "internalType": "address",
          "name": "recipient",
          "type": "address"
        }
      ],
      "name": "sendBid",
      "outputs": [],
      "stateMutability": "payable",
      "type": "function"
    },
    {
      "inputs": [
        {
          "internalType": "address",
          "name": "newOwner",
          "type": "address"
        }
      ],
      "name": "transferOwnership",
      "outputs": [],
      "stateMutability": "nonpayable",
      "type": "function"
    }
  ],
  "bytecode": "0x608060405234801561001057600080fd5b5061002d61002261003960201b60201c565b61004160201b60201c565b60018081905550610105565b600033905090565b60008060009054906101000a900473ffffffffffffffffffffffffffffffffffffffff169050816000806101000a81548173ffffffffffffffffffffffffffffffffffffffff021916908373ffffffffffffffffffffffffffffffffffffffff1602179055508173ffffffffffffffffffffffffffffffffffffffff168173ffffffffffffffffffffffffffffffffffffffff167f8be0079c531659141344cd1fd0a4f28419497f9722a3daafe3b4186f6b6457e060405160405180910390a35050565b61209780620001156000396000f3fe60806040526004361061007b5760003560e01c80638da5cb5b1161004e5780638da5cb5b14610120578063ac477ba51461014b578063b81c78ec14610188578063f2fde38b146101b35761007b565b80634423c5f1146100805780636073acd4146100c4578063715018a6146100e05780637a02fb9b146100f7575b600080fd5b34801561008c57600080fd5b506100a760048036038101906100a291906113e2565b6101dc565b6040516100bb989796959493929190611513565b60405180910390f35b6100de60048036038101906100d991906116f9565b610316565b005b3480156100ec57600080fd5b506100f561087e565b005b34801561010357600080fd5b5061011e6004803603810190610119919061181d565b610892565b005b34801561012c57600080fd5b50610135610d30565b6040516101429190611866565b60405180910390f35b34801561015757600080fd5b50610172600480360381019061016d9190611881565b610d59565b60405161017f91906118c1565b60405180910390f35b34801561019457600080fd5b5061019d610f27565b6040516101aa9190611ac5565b60405180910390f35b3480156101bf57600080fd5b506101da60048036038101906101d59190611ae7565b611119565b005b600581815481106101ec57600080fd5b90600052602060002090600702016000915090508060000154908060010160009054906101000a900473ffffffffffffffffffffffffffffffffffffffff16908060020160009054906101000a900473ffffffffffffffffffffffffffffffffffffffff169080600301549080600401549080600501805461026d90611b43565b80601f016020809104026020016040519081016040528092919081815260200182805461029990611b43565b80156102e65780601f106102bb576101008083540402835291602001916102e6565b820191906000526020600020905b8154815290600101906020018083116102c957829003601f168201915b5050505050908060060160009054906101000a900460ff16908060060160019054906101000a900460ff16905088565b600073ffffffffffffffffffffffffffffffffffffffff168173ffffffffffffffffffffffffffffffffffffffff161415610386576040517f08c379a000000000000000000000000000000000000000000000000000000000815260040161037d90611be7565b60405180910390fd5b60006064605a346103979190611c36565b6103a19190611cbf565b905060006103af600261119d565b905060006040518061010001604052808381526020013373ffffffffffffffffffffffffffffffffffffffff1681526020018573ffffffffffffffffffffffffffffffffffffffff16815260200134815260200142815260200186815260200160001515815260200160011515815250905060058190806001815401808255809150506001900390600052602060002090600702016000909190919091506000820151816000015560208201518160010160006101000a81548173ffffffffffffffffffffffffffffffffffffffff021916908373ffffffffffffffffffffffffffffffffffffffff16021790555060408201518160020160006101000a81548173ffffffffffffffffffffffffffffffffffffffff021916908373ffffffffffffffffffffffffffffffffffffffff160217905550606082015181600301556080820151816004015560a08201518160050190805190602001906105159291906112f5565b5060c08201518160060160006101000a81548160ff02191690831515021790555060e08201518160060160016101000a81548160ff021916908315150217905550505080600360003373ffffffffffffffffffffffffffffffffffffffff1673ffffffffffffffffffffffffffffffffffffffff16815260200190815260200160002060008481526020019081526020016000206000820151816000015560208201518160010160006101000a81548173ffffffffffffffffffffffffffffffffffffffff021916908373ffffffffffffffffffffffffffffffffffffffff16021790555060408201518160020160006101000a81548173ffffffffffffffffffffffffffffffffffffffff021916908373ffffffffffffffffffffffffffffffffffffffff160217905550606082015181600301556080820151816004015560a08201518160050190805190602001906106719291906112f5565b5060c08201518160060160006101000a81548160ff02191690831515021790555060e08201518160060160016101000a81548160ff02191690831515021790555090505080600460008673ffffffffffffffffffffffffffffffffffffffff1673ffffffffffffffffffffffffffffffffffffffff16815260200190815260200160002060008481526020019081526020016000206000820151816000015560208201518160010160006101000a81548173ffffffffffffffffffffffffffffffffffffffff021916908373ffffffffffffffffffffffffffffffffffffffff16021790555060408201518160020160006101000a81548173ffffffffffffffffffffffffffffffffffffffff021916908373ffffffffffffffffffffffffffffffffffffffff160217905550606082015181600301556080820151816004015560a08201518160050190805190602001906107ce9291906112f5565b5060c08201518160060160006101000a81548160ff02191690831515021790555060e08201518160060160016101000a81548160ff0219169083151502179055509050508373ffffffffffffffffffffffffffffffffffffffff163373ffffffffffffffffffffffffffffffffffffffff167f4e2c9b2f86fd561afda880d19abdddbf8768a7c65d31285d59fa4f162fc9bcfa3460405161086f9190611cf0565b60405180910390a35050505050565b6108866111ab565b6108906000611229565b565b600260015414156108d8576040517f08c379a00000000000000000000000000000000000000000000000000000000081526004016108cf90611d57565b60405180910390fd5b60026001819055506000805b8251811015610be657600083828151811061090257610901611d77565b5b602002602001015190506000600360003373ffffffffffffffffffffffffffffffffffffffff1673ffffffffffffffffffffffffffffffffffffffff168152602001908152602001600020600083815260200190815260200160002060405180610100016040529081600082015481526020016001820160009054906101000a900473ffffffffffffffffffffffffffffffffffffffff1673ffffffffffffffffffffffffffffffffffffffff1673ffffffffffffffffffffffffffffffffffffffff1681526020016002820160009054906101000a900473ffffffffffffffffffffffffffffffffffffffff1673ffffffffffffffffffffffffffffffffffffffff1673ffffffffffffffffffffffffffffffffffffffff1681526020016003820154815260200160048201548152602001600582018054610a4490611b43565b80601f0160208091040260200160405190810160405280929190818152602001828054610a7090611b43565b8015610abd5780601f10610a9257610100808354040283529160200191610abd565b820191906000526020600020905b815481529060010190602001808311610aa057829003601f168201915b505050505081526020016006820160009054906101000a900460ff161515151581526020016006820160019054906101000a900460ff16151515158152505090508060e00151610b0e575050610bd3565b8060c0015115610b1f575050610bd3565b610b298233610d59565b610b34575050610bd3565b60006064605a8360600151610b499190611c36565b610b539190611cbf565b90508085610b619190611da6565b94506001600360003373ffffffffffffffffffffffffffffffffffffffff1673ffffffffffffffffffffffffffffffffffffffff168152602001908152602001600020600085815260200190815260200160002060060160006101000a81548160ff0219169083151502179055505050505b8080610bde90611dfc565b9150506108e4565b5060008111610c2a576040517f08c379a0000000000000000000000000000000000000000000000000000000008152600401610c2190611e91565b60405180910390fd5b60003373ffffffffffffffffffffffffffffffffffffffff1682604051610c5090611ee2565b60006040518083038185875af1925050503d8060008114610c8d576040519150601f19603f3d011682016040523d82523d6000602084013e610c92565b606091505b5050905080610cd6576040517f08c379a0000000000000000000000000000000000000000000000000000000008152600401610ccd90611f43565b60405180910390fd5b3373ffffffffffffffffffffffffffffffffffffffff167f7ece3474001de6be8069ebf77e244ca888275cca2fd7e48dbf6b138c57591cba83604051610d1c9190611cf0565b60405180910390a250506001808190555050565b60008060009054906101000a900473ffffffffffffffffffffffffffffffffffffffff16905090565b60008060011515600360008573ffffffffffffffffffffffffffffffffffffffff1673ffffffffffffffffffffffffffffffffffffffff168152602001908152602001600020600086815260200190815260200160002060060160019054906101000a900460ff161515149050600060011515600460008673ffffffffffffffffffffffffffffffffffffffff1673ffffffffffffffffffffffffffffffffffffffff168152602001908152602001600020600087815260200190815260200160002060060160019054906101000a900460ff1615151490508115610ea65762093a80600360008673ffffffffffffffffffffffffffffffffffffffff1673ffffffffffffffffffffffffffffffffffffffff168152602001908152602001600020600087815260200190815260200160002060040154610e9a9190611da6565b42101592505050610f21565b8015610f1a5762093a80600460008673ffffffffffffffffffffffffffffffffffffffff1673ffffffffffffffffffffffffffffffffffffffff168152602001908152602001600020600087815260200190815260200160002060040154610f0e9190611da6565b42101592505050610f21565b6001925050505b92915050565b60606005805480602002602001604051908101604052809291908181526020016000905b82821015611110578382906000526020600020906007020160405180610100016040529081600082015481526020016001820160009054906101000a900473ffffffffffffffffffffffffffffffffffffffff1673ffffffffffffffffffffffffffffffffffffffff1673ffffffffffffffffffffffffffffffffffffffff1681526020016002820160009054906101000a900473ffffffffffffffffffffffffffffffffffffffff1673ffffffffffffffffffffffffffffffffffffffff1673ffffffffffffffffffffffffffffffffffffffff168152602001600382015481526020016004820154815260200160058201805461104990611b43565b80601f016020809104026020016040519081016040528092919081815260200182805461107590611b43565b80156110c25780601f10611097576101008083540402835291602001916110c2565b820191906000526020600020905b8154815290600101906020018083116110a557829003601f168201915b505050505081526020016006820160009054906101000a900460ff161515151581526020016006820160019054906101000a900460ff16151515158152505081526020019060010190610f4b565b50505050905090565b6111216111ab565b600073ffffffffffffffffffffffffffffffffffffffff168173ffffffffffffffffffffffffffffffffffffffff161415611191576040517f08c379a000000000000000000000000000000000000000000000000000000000815260040161118890611fd5565b60405180910390fd5b61119a81611229565b50565b600081600001549050919050565b6111b36112ed565b73ffffffffffffffffffffffffffffffffffffffff166111d1610d30565b73ffffffffffffffffffffffffffffffffffffffff1614611227576040517f08c379a000000000000000000000000000000000000000000000000000000000815260040161121e90612041565b60405180910390fd5b565b60008060009054906101000a900473ffffffffffffffffffffffffffffffffffffffff169050816000806101000a81548173ffffffffffffffffffffffffffffffffffffffff021916908373ffffffffffffffffffffffffffffffffffffffff1602179055508173ffffffffffffffffffffffffffffffffffffffff168173ffffffffffffffffffffffffffffffffffffffff167f8be0079c531659141344cd1fd0a4f28419497f9722a3daafe3b4186f6b6457e060405160405180910390a35050565b600033905090565b82805461130190611b43565b90600052602060002090601f016020900481019282611323576000855561136a565b82601f1061133c57805160ff191683800117855561136a565b8280016001018555821561136a579182015b8281111561136957825182559160200191906001019061134e565b5b509050611377919061137b565b5090565b5b8082111561139457600081600090555060010161137c565b5090565b6000604051905090565b600080fd5b600080fd5b6000819050919050565b6113bf816113ac565b81146113ca57600080fd5b50565b6000813590506113dc816113b6565b92915050565b6000602082840312156113f8576113f76113a2565b5b6000611406848285016113cd565b91505092915050565b611418816113ac565b82525050565b600073ffffffffffffffffffffffffffffffffffffffff82169050919050565b60006114498261141e565b9050919050565b6114598161143e565b82525050565b600081519050919050565b600082825260208201905092915050565b60005b8381101561149957808201518184015260208101905061147e565b838111156114a8576000848401525b50505050565b6000601f19601f8301169050919050565b60006114ca8261145f565b6114d4818561146a565b93506114e481856020860161147b565b6114ed816114ae565b840191505092915050565b60008115159050919050565b61150d816114f8565b82525050565b600061010082019050611529600083018b61140f565b611536602083018a611450565b6115436040830189611450565b611550606083018861140f565b61155d608083018761140f565b81810360a083015261156f81866114bf565b905061157e60c0830185611504565b61158b60e0830184611504565b9998505050505050505050565b600080fd5b600080fd5b7f4e487b7100000000000000000000000000000000000000000000000000000000600052604160045260246000fd5b6115da826114ae565b810181811067ffffffffffffffff821117156115f9576115f86115a2565b5b80604052505050565b600061160c611398565b905061161882826115d1565b919050565b600067ffffffffffffffff821115611638576116376115a2565b5b611641826114ae565b9050602081019050919050565b82818337600083830152505050565b600061167061166b8461161d565b611602565b90508281526020810184848401111561168c5761168b61159d565b5b61169784828561164e565b509392505050565b600082601f8301126116b4576116b3611598565b5b81356116c484826020860161165d565b91505092915050565b6116d68161143e565b81146116e157600080fd5b50565b6000813590506116f3816116cd565b92915050565b600080604083850312156117105761170f6113a2565b5b600083013567ffffffffffffffff81111561172e5761172d6113a7565b5b61173a8582860161169f565b925050602061174b858286016116e4565b9150509250929050565b600067ffffffffffffffff8211156117705761176f6115a2565b5b602082029050602081019050919050565b600080fd5b600061179961179484611755565b611602565b905080838252602082019050602084028301858111156117bc576117bb611781565b5b835b818110156117e557806117d188826113cd565b8452602084019350506020810190506117be565b5050509392505050565b600082601f83011261180457611803611598565b5b8135611814848260208601611786565b91505092915050565b600060208284031215611833576118326113a2565b5b600082013567ffffffffffffffff811115611851576118506113a7565b5b61185d848285016117ef565b91505092915050565b600060208201905061187b6000830184611450565b92915050565b60008060408385031215611898576118976113a2565b5b60006118a6858286016113cd565b92505060206118b7858286016116e4565b9150509250929050565b60006020820190506118d66000830184611504565b92915050565b600081519050919050565b600082825260208201905092915050565b6000819050602082019050919050565b611911816113ac565b82525050565b6119208161143e565b82525050565b600082825260208201905092915050565b60006119428261145f565b61194c8185611926565b935061195c81856020860161147b565b611965816114ae565b840191505092915050565b611979816114f8565b82525050565b6000610100830160008301516119986000860182611908565b5060208301516119ab6020860182611917565b5060408301516119be6040860182611917565b5060608301516119d16060860182611908565b5060808301516119e46080860182611908565b5060a083015184820360a08601526119fc8282611937565b91505060c0830151611a1160c0860182611970565b5060e0830151611a2460e0860182611970565b508091505092915050565b6000611a3b838361197f565b905092915050565b6000602082019050919050565b6000611a5b826118dc565b611a6581856118e7565b935083602082028501611a77856118f8565b8060005b85811015611ab35784840389528151611a948582611a2f565b9450611a9f83611a43565b925060208a01995050600181019050611a7b565b50829750879550505050505092915050565b60006020820190508181036000830152611adf8184611a50565b905092915050565b600060208284031215611afd57611afc6113a2565b5b6000611b0b848285016116e4565b91505092915050565b7f4e487b7100000000000000000000000000000000000000000000000000000000600052602260045260246000fd5b60006002820490506001821680611b5b57607f821691505b60208210811415611b6f57611b6e611b14565b5b50919050565b7f526563697069656e742063616e6e6f7420626520746865207a65726f2061646460008201527f7265737300000000000000000000000000000000000000000000000000000000602082015250565b6000611bd160248361146a565b9150611bdc82611b75565b604082019050919050565b60006020820190508181036000830152611c0081611bc4565b9050919050565b7f4e487b7100000000000000000000000000000000000000000000000000000000600052601160045260246000fd5b6000611c41826113ac565b9150611c4c836113ac565b9250817fffffffffffffffffffffffffffffffffffffffffffffffffffffffffffffffff0483118215151615611c8557611c84611c07565b5b828202905092915050565b7f4e487b7100000000000000000000000000000000000000000000000000000000600052601260045260246000fd5b6000611cca826113ac565b9150611cd5836113ac565b925082611ce557611ce4611c90565b5b828204905092915050565b6000602082019050611d05600083018461140f565b92915050565b7f5265656e7472616e637947756172643a207265656e7472616e742063616c6c00600082015250565b6000611d41601f8361146a565b9150611d4c82611d0b565b602082019050919050565b60006020820190508181036000830152611d7081611d34565b9050919050565b7f4e487b7100000000000000000000000000000000000000000000000000000000600052603260045260246000fd5b6000611db1826113ac565b9150611dbc836113ac565b9250827fffffffffffffffffffffffffffffffffffffffffffffffffffffffffffffffff03821115611df157611df0611c07565b5b828201905092915050565b6000611e07826113ac565b91507fffffffffffffffffffffffffffffffffffffffffffffffffffffffffffffffff821415611e3a57611e39611c07565b5b600182019050919050565b7f4e6f20657468657220746f207265636c61696d2e000000000000000000000000600082015250565b6000611e7b60148361146a565b9150611e8682611e45565b602082019050919050565b60006020820190508181036000830152611eaa81611e6e565b9050919050565b600081905092915050565b50565b6000611ecc600083611eb1565b9150611ed782611ebc565b600082019050919050565b6000611eed82611ebf565b9150819050919050565b7f4661696c656420746f2073656e642065746865722e0000000000000000000000600082015250565b6000611f2d60158361146a565b9150611f3882611ef7565b602082019050919050565b60006020820190508181036000830152611f5c81611f20565b9050919050565b7f4f776e61626c653a206e6577206f776e657220697320746865207a65726f206160008201527f6464726573730000000000000000000000000000000000000000000000000000602082015250565b6000611fbf60268361146a565b9150611fca82611f63565b604082019050919050565b60006020820190508181036000830152611fee81611fb2565b9050919050565b7f4f776e61626c653a2063616c6c6572206973206e6f7420746865206f776e6572600082015250565b600061202b60208361146a565b915061203682611ff5565b602082019050919050565b6000602082019050818103600083015261205a8161201e565b905091905056fea264697066735822122048696333cc41ccbfe51cefa448308395ef58de95c927f703cf677276b73b38d664736f6c63430008090033",
  "linkReferences": {},
  "deployedLinkReferences": {}
}