{
  "_format": "hh-sol-artifact-1",
  "contractName": "AckToEarn",
  "sourceName": "contracts/AckToEarn.sol",
  "abi": [
    {
      "anonymous": false,
      "inputs": [
        {
          "indexed": true,
          "internalType": "address",
          "name": "from",
          "type": "address"
        },
        {
          "indexed": true,
          "internalType": "address",
          "name": "to",
          "type": "address"
        },
        {
          "indexed": false,
          "internalType": "uint256",
          "name": "amount",
          "type": "uint256"
        }
      ],
      "name": "NewBid",
      "type": "event"
    },
    {
      "inputs": [
        {
          "internalType": "string",
          "name": "message",
          "type": "string"
        },
        {
          "internalType": "address",
          "name": "recipient",
          "type": "address"
        }
      ],
      "name": "sendMessage",
      "outputs": [],
      "stateMutability": "payable",
      "type": "function"
    }
  ],
  "bytecode": "0x608060405234801561001057600080fd5b50610785806100206000396000f3fe60806040526004361061001e5760003560e01c8063c48d6d5e14610023575b600080fd5b61003d600480360381019061003891906104d2565b61003f565b005b600073ffffffffffffffffffffffffffffffffffffffff168173ffffffffffffffffffffffffffffffffffffffff1614156100af576040517f08c379a00000000000000000000000000000000000000000000000000000000081526004016100a6906105b1565b60405180910390fd5b60006064605a346100c0919061060a565b6100ca9190610693565b90506000808373ffffffffffffffffffffffffffffffffffffffff1673ffffffffffffffffffffffffffffffffffffffff1681526020019081526020016000206040518060a001604052803373ffffffffffffffffffffffffffffffffffffffff16815260200183815260200185815260200142815260200160001515815250908060018154018082558091505060019003906000526020600020906005020160009091909190915060008201518160000160006101000a81548173ffffffffffffffffffffffffffffffffffffffff021916908373ffffffffffffffffffffffffffffffffffffffff1602179055506020820151816001015560408201518160020190805190602001906101e0929190610277565b506060820151816003015560808201518160040160006101000a81548160ff02191690831515021790555050508173ffffffffffffffffffffffffffffffffffffffff163373ffffffffffffffffffffffffffffffffffffffff167f4e2c9b2f86fd561afda880d19abdddbf8768a7c65d31285d59fa4f162fc9bcfa3460405161026a91906106d3565b60405180910390a3505050565b8280546102839061071d565b90600052602060002090601f0160209004810192826102a557600085556102ec565b82601f106102be57805160ff19168380011785556102ec565b828001600101855582156102ec579182015b828111156102eb5782518255916020019190600101906102d0565b5b5090506102f991906102fd565b5090565b5b808211156103165760008160009055506001016102fe565b5090565b6000604051905090565b600080fd5b600080fd5b600080fd5b600080fd5b6000601f19601f8301169050919050565b7f4e487b7100000000000000000000000000000000000000000000000000000000600052604160045260246000fd5b61038182610338565b810181811067ffffffffffffffff821117156103a05761039f610349565b5b80604052505050565b60006103b361031a565b90506103bf8282610378565b919050565b600067ffffffffffffffff8211156103df576103de610349565b5b6103e882610338565b9050602081019050919050565b82818337600083830152505050565b6000610417610412846103c4565b6103a9565b90508281526020810184848401111561043357610432610333565b5b61043e8482856103f5565b509392505050565b600082601f83011261045b5761045a61032e565b5b813561046b848260208601610404565b91505092915050565b600073ffffffffffffffffffffffffffffffffffffffff82169050919050565b600061049f82610474565b9050919050565b6104af81610494565b81146104ba57600080fd5b50565b6000813590506104cc816104a6565b92915050565b600080604083850312156104e9576104e8610324565b5b600083013567ffffffffffffffff81111561050757610506610329565b5b61051385828601610446565b9250506020610524858286016104bd565b9150509250929050565b600082825260208201905092915050565b7f526563697069656e742063616e6e6f7420626520746865207a65726f2061646460008201527f7265737300000000000000000000000000000000000000000000000000000000602082015250565b600061059b60248361052e565b91506105a68261053f565b604082019050919050565b600060208201905081810360008301526105ca8161058e565b9050919050565b6000819050919050565b7f4e487b7100000000000000000000000000000000000000000000000000000000600052601160045260246000fd5b6000610615826105d1565b9150610620836105d1565b9250817fffffffffffffffffffffffffffffffffffffffffffffffffffffffffffffffff0483118215151615610659576106586105db565b5b828202905092915050565b7f4e487b7100000000000000000000000000000000000000000000000000000000600052601260045260246000fd5b600061069e826105d1565b91506106a9836105d1565b9250826106b9576106b8610664565b5b828204905092915050565b6106cd816105d1565b82525050565b60006020820190506106e860008301846106c4565b92915050565b7f4e487b7100000000000000000000000000000000000000000000000000000000600052602260045260246000fd5b6000600282049050600182168061073557607f821691505b60208210811415610749576107486106ee565b5b5091905056fea2646970667358221220e0df6874264b53d25263243bf616b40d95d9dd52c371ad0d2ff65023e709c03a64736f6c63430008090033",
  "linkReferences": {},
  "deployedLinkReferences": {}
}