{
  "_format": "hh-sol-artifact-1",
  "contractName": "AckToEarn",
  "sourceName": "contracts/AckToEarn.sol",
  "abi": [
    {
      "anonymous": false,
      "inputs": [
        {
          "indexed": true,
          "internalType": "address",
          "name": "from",
          "type": "address"
        },
        {
          "indexed": true,
          "internalType": "address",
          "name": "to",
          "type": "address"
        },
        {
          "indexed": false,
          "internalType": "uint256",
          "name": "amount",
          "type": "uint256"
        }
      ],
      "name": "NewBid",
      "type": "event"
    },
    {
      "anonymous": false,
      "inputs": [
        {
          "indexed": true,
          "internalType": "address",
          "name": "previousOwner",
          "type": "address"
        },
        {
          "indexed": true,
          "internalType": "address",
          "name": "newOwner",
          "type": "address"
        }
      ],
      "name": "OwnershipTransferred",
      "type": "event"
    },
    {
      "anonymous": false,
      "inputs": [
        {
          "indexed": true,
          "internalType": "address",
          "name": "bidder",
          "type": "address"
        },
        {
          "indexed": false,
          "internalType": "uint256",
          "name": "amount",
          "type": "uint256"
        }
      ],
      "name": "ReclaimBid",
      "type": "event"
    },
    {
      "inputs": [
        {
          "internalType": "uint256",
          "name": "",
          "type": "uint256"
        }
      ],
      "name": "bids",
      "outputs": [
        {
          "internalType": "uint256",
          "name": "id",
          "type": "uint256"
        },
        {
          "internalType": "address",
          "name": "bidder",
          "type": "address"
        },
        {
          "internalType": "address",
          "name": "recipient",
          "type": "address"
        },
        {
          "internalType": "uint256",
          "name": "recipientAmount",
          "type": "uint256"
        },
        {
          "internalType": "uint256",
          "name": "timestamp",
          "type": "uint256"
        },
        {
          "internalType": "string",
          "name": "message",
          "type": "string"
        },
        {
          "internalType": "bool",
          "name": "claimed",
          "type": "bool"
        },
        {
          "internalType": "bool",
          "name": "exists",
          "type": "bool"
        }
      ],
      "stateMutability": "view",
      "type": "function"
    },
    {
      "inputs": [],
      "name": "getBids",
      "outputs": [
        {
          "components": [
            {
              "internalType": "uint256",
              "name": "id",
              "type": "uint256"
            },
            {
              "internalType": "address",
              "name": "bidder",
              "type": "address"
            },
            {
              "internalType": "address",
              "name": "recipient",
              "type": "address"
            },
            {
              "internalType": "uint256",
              "name": "recipientAmount",
              "type": "uint256"
            },
            {
              "internalType": "uint256",
              "name": "timestamp",
              "type": "uint256"
            },
            {
              "internalType": "string",
              "name": "message",
              "type": "string"
            },
            {
              "internalType": "bool",
              "name": "claimed",
              "type": "bool"
            },
            {
              "internalType": "bool",
              "name": "exists",
              "type": "bool"
            }
          ],
          "internalType": "struct AckToEarn.Bid[]",
          "name": "",
          "type": "tuple[]"
        }
      ],
      "stateMutability": "view",
      "type": "function"
    },
    {
      "inputs": [],
      "name": "owner",
      "outputs": [
        {
          "internalType": "address",
          "name": "",
          "type": "address"
        }
      ],
      "stateMutability": "view",
      "type": "function"
    },
    {
      "inputs": [
        {
          "internalType": "uint256[]",
          "name": "bidIdsToReclaim",
          "type": "uint256[]"
        }
      ],
      "name": "reclaimBids",
      "outputs": [],
      "stateMutability": "nonpayable",
      "type": "function"
    },
    {
      "inputs": [],
      "name": "renounceOwnership",
      "outputs": [],
      "stateMutability": "nonpayable",
      "type": "function"
    },
    {
      "inputs": [
        {
          "internalType": "string",
          "name": "message",
          "type": "string"
        },
        {
          "internalType": "address",
          "name": "recipient",
          "type": "address"
        }
      ],
      "name": "sendBid",
      "outputs": [],
      "stateMutability": "payable",
      "type": "function"
    },
    {
      "inputs": [
        {
          "internalType": "address",
          "name": "newOwner",
          "type": "address"
        }
      ],
      "name": "transferOwnership",
      "outputs": [],
      "stateMutability": "nonpayable",
      "type": "function"
    }
  ],
  "bytecode": "0x608060405234801561001057600080fd5b5061002d61002261003960201b60201c565b61004160201b60201c565b60018081905550610105565b600033905090565b60008060009054906101000a900473ffffffffffffffffffffffffffffffffffffffff169050816000806101000a81548173ffffffffffffffffffffffffffffffffffffffff021916908373ffffffffffffffffffffffffffffffffffffffff1602179055508173ffffffffffffffffffffffffffffffffffffffff168173ffffffffffffffffffffffffffffffffffffffff167f8be0079c531659141344cd1fd0a4f28419497f9722a3daafe3b4186f6b6457e060405160405180910390a35050565b611fc2806101146000396000f3fe6080604052600436106100705760003560e01c80637a02fb9b1161004e5780637a02fb9b146100ec5780638da5cb5b14610115578063b81c78ec14610140578063f2fde38b1461016b57610070565b80634423c5f1146100755780636073acd4146100b9578063715018a6146100d5575b600080fd5b34801561008157600080fd5b5061009c60048036038101906100979190611368565b610194565b6040516100b0989796959493929190611499565b60405180910390f35b6100d360048036038101906100ce919061167f565b6102ce565b005b3480156100e157600080fd5b506100ea610830565b005b3480156100f857600080fd5b50610113600480360381019061010e91906117a3565b610844565b005b34801561012157600080fd5b5061012a610cc4565b60405161013791906117ec565b60405180910390f35b34801561014c57600080fd5b50610155610ced565b60405161016291906119f0565b60405180910390f35b34801561017757600080fd5b50610192600480360381019061018d9190611a12565b610edf565b005b600581815481106101a457600080fd5b90600052602060002090600702016000915090508060000154908060010160009054906101000a900473ffffffffffffffffffffffffffffffffffffffff16908060020160009054906101000a900473ffffffffffffffffffffffffffffffffffffffff169080600301549080600401549080600501805461022590611a6e565b80601f016020809104026020016040519081016040528092919081815260200182805461025190611a6e565b801561029e5780601f106102735761010080835404028352916020019161029e565b820191906000526020600020905b81548152906001019060200180831161028157829003601f168201915b5050505050908060060160009054906101000a900460ff16908060060160019054906101000a900460ff16905088565b600073ffffffffffffffffffffffffffffffffffffffff168173ffffffffffffffffffffffffffffffffffffffff16141561033e576040517f08c379a000000000000000000000000000000000000000000000000000000000815260040161033590611b12565b60405180910390fd5b600061034a6002610f63565b905060006040518061010001604052808381526020013373ffffffffffffffffffffffffffffffffffffffff1681526020018473ffffffffffffffffffffffffffffffffffffffff1681526020016064605a346103a79190611b61565b6103b19190611bea565b815260200142815260200185815260200160001515815260200160011515815250905060058190806001815401808255809150506001900390600052602060002090600702016000909190919091506000820151816000015560208201518160010160006101000a81548173ffffffffffffffffffffffffffffffffffffffff021916908373ffffffffffffffffffffffffffffffffffffffff16021790555060408201518160020160006101000a81548173ffffffffffffffffffffffffffffffffffffffff021916908373ffffffffffffffffffffffffffffffffffffffff160217905550606082015181600301556080820151816004015560a08201518160050190805190602001906104c892919061127b565b5060c08201518160060160006101000a81548160ff02191690831515021790555060e08201518160060160016101000a81548160ff021916908315150217905550505080600360003373ffffffffffffffffffffffffffffffffffffffff1673ffffffffffffffffffffffffffffffffffffffff16815260200190815260200160002060008481526020019081526020016000206000820151816000015560208201518160010160006101000a81548173ffffffffffffffffffffffffffffffffffffffff021916908373ffffffffffffffffffffffffffffffffffffffff16021790555060408201518160020160006101000a81548173ffffffffffffffffffffffffffffffffffffffff021916908373ffffffffffffffffffffffffffffffffffffffff160217905550606082015181600301556080820151816004015560a082015181600501908051906020019061062492919061127b565b5060c08201518160060160006101000a81548160ff02191690831515021790555060e08201518160060160016101000a81548160ff02191690831515021790555090505080600460008573ffffffffffffffffffffffffffffffffffffffff1673ffffffffffffffffffffffffffffffffffffffff16815260200190815260200160002060008481526020019081526020016000206000820151816000015560208201518160010160006101000a81548173ffffffffffffffffffffffffffffffffffffffff021916908373ffffffffffffffffffffffffffffffffffffffff16021790555060408201518160020160006101000a81548173ffffffffffffffffffffffffffffffffffffffff021916908373ffffffffffffffffffffffffffffffffffffffff160217905550606082015181600301556080820151816004015560a082015181600501908051906020019061078192919061127b565b5060c08201518160060160006101000a81548160ff02191690831515021790555060e08201518160060160016101000a81548160ff0219169083151502179055509050508273ffffffffffffffffffffffffffffffffffffffff163373ffffffffffffffffffffffffffffffffffffffff167f4e2c9b2f86fd561afda880d19abdddbf8768a7c65d31285d59fa4f162fc9bcfa346040516108229190611c1b565b60405180910390a350505050565b610838610f71565b6108426000610fef565b565b6002600154141561088a576040517f08c379a000000000000000000000000000000000000000000000000000000000815260040161088190611c82565b60405180910390fd5b60026001819055506000805b8251811015610b7a5760008382815181106108b4576108b3611ca2565b5b602002602001015190506000600360003373ffffffffffffffffffffffffffffffffffffffff1673ffffffffffffffffffffffffffffffffffffffff168152602001908152602001600020600083815260200190815260200160002060405180610100016040529081600082015481526020016001820160009054906101000a900473ffffffffffffffffffffffffffffffffffffffff1673ffffffffffffffffffffffffffffffffffffffff1673ffffffffffffffffffffffffffffffffffffffff1681526020016002820160009054906101000a900473ffffffffffffffffffffffffffffffffffffffff1673ffffffffffffffffffffffffffffffffffffffff1673ffffffffffffffffffffffffffffffffffffffff16815260200160038201548152602001600482015481526020016005820180546109f690611a6e565b80601f0160208091040260200160405190810160405280929190818152602001828054610a2290611a6e565b8015610a6f5780601f10610a4457610100808354040283529160200191610a6f565b820191906000526020600020905b815481529060010190602001808311610a5257829003601f168201915b505050505081526020016006820160009054906101000a900460ff161515151581526020016006820160019054906101000a900460ff16151515158152505090508060e00151610ac0575050610b67565b8060c0015115610ad1575050610b67565b610adb82336110b3565b610ae6575050610b67565b806060015184610af69190611cd1565b93506001600360003373ffffffffffffffffffffffffffffffffffffffff1673ffffffffffffffffffffffffffffffffffffffff168152602001908152602001600020600084815260200190815260200160002060060160006101000a81548160ff02191690831515021790555050505b8080610b7290611d27565b915050610896565b5060008111610bbe576040517f08c379a0000000000000000000000000000000000000000000000000000000008152600401610bb590611dbc565b60405180910390fd5b60003373ffffffffffffffffffffffffffffffffffffffff1682604051610be490611e0d565b60006040518083038185875af1925050503d8060008114610c21576040519150601f19603f3d011682016040523d82523d6000602084013e610c26565b606091505b5050905080610c6a576040517f08c379a0000000000000000000000000000000000000000000000000000000008152600401610c6190611e6e565b60405180910390fd5b3373ffffffffffffffffffffffffffffffffffffffff167f7ece3474001de6be8069ebf77e244ca888275cca2fd7e48dbf6b138c57591cba83604051610cb09190611c1b565b60405180910390a250506001808190555050565b60008060009054906101000a900473ffffffffffffffffffffffffffffffffffffffff16905090565b60606005805480602002602001604051908101604052809291908181526020016000905b82821015610ed6578382906000526020600020906007020160405180610100016040529081600082015481526020016001820160009054906101000a900473ffffffffffffffffffffffffffffffffffffffff1673ffffffffffffffffffffffffffffffffffffffff1673ffffffffffffffffffffffffffffffffffffffff1681526020016002820160009054906101000a900473ffffffffffffffffffffffffffffffffffffffff1673ffffffffffffffffffffffffffffffffffffffff1673ffffffffffffffffffffffffffffffffffffffff1681526020016003820154815260200160048201548152602001600582018054610e0f90611a6e565b80601f0160208091040260200160405190810160405280929190818152602001828054610e3b90611a6e565b8015610e885780601f10610e5d57610100808354040283529160200191610e88565b820191906000526020600020905b815481529060010190602001808311610e6b57829003601f168201915b505050505081526020016006820160009054906101000a900460ff161515151581526020016006820160019054906101000a900460ff16151515158152505081526020019060010190610d11565b50505050905090565b610ee7610f71565b600073ffffffffffffffffffffffffffffffffffffffff168173ffffffffffffffffffffffffffffffffffffffff161415610f57576040517f08c379a0000000000000000000000000000000000000000000000000000000008152600401610f4e90611f00565b60405180910390fd5b610f6081610fef565b50565b600081600001549050919050565b610f79611273565b73ffffffffffffffffffffffffffffffffffffffff16610f97610cc4565b73ffffffffffffffffffffffffffffffffffffffff1614610fed576040517f08c379a0000000000000000000000000000000000000000000000000000000008152600401610fe490611f6c565b60405180910390fd5b565b60008060009054906101000a900473ffffffffffffffffffffffffffffffffffffffff169050816000806101000a81548173ffffffffffffffffffffffffffffffffffffffff021916908373ffffffffffffffffffffffffffffffffffffffff1602179055508173ffffffffffffffffffffffffffffffffffffffff168173ffffffffffffffffffffffffffffffffffffffff167f8be0079c531659141344cd1fd0a4f28419497f9722a3daafe3b4186f6b6457e060405160405180910390a35050565b600080600360008473ffffffffffffffffffffffffffffffffffffffff1673ffffffffffffffffffffffffffffffffffffffff168152602001908152602001600020600085815260200190815260200160002060060160019054906101000a900460ff1690506000600460008573ffffffffffffffffffffffffffffffffffffffff1673ffffffffffffffffffffffffffffffffffffffff168152602001908152602001600020600086815260200190815260200160002060060160019054906101000a900460ff16905081156111f25762093a80600360008673ffffffffffffffffffffffffffffffffffffffff1673ffffffffffffffffffffffffffffffffffffffff1681526020019081526020016000206000878152602001908152602001600020600401546111e69190611cd1565b4210159250505061126d565b80156112665762093a80600460008673ffffffffffffffffffffffffffffffffffffffff1673ffffffffffffffffffffffffffffffffffffffff16815260200190815260200160002060008781526020019081526020016000206004015461125a9190611cd1565b4210159250505061126d565b6001925050505b92915050565b600033905090565b82805461128790611a6e565b90600052602060002090601f0160209004810192826112a957600085556112f0565b82601f106112c257805160ff19168380011785556112f0565b828001600101855582156112f0579182015b828111156112ef5782518255916020019190600101906112d4565b5b5090506112fd9190611301565b5090565b5b8082111561131a576000816000905550600101611302565b5090565b6000604051905090565b600080fd5b600080fd5b6000819050919050565b61134581611332565b811461135057600080fd5b50565b6000813590506113628161133c565b92915050565b60006020828403121561137e5761137d611328565b5b600061138c84828501611353565b91505092915050565b61139e81611332565b82525050565b600073ffffffffffffffffffffffffffffffffffffffff82169050919050565b60006113cf826113a4565b9050919050565b6113df816113c4565b82525050565b600081519050919050565b600082825260208201905092915050565b60005b8381101561141f578082015181840152602081019050611404565b8381111561142e576000848401525b50505050565b6000601f19601f8301169050919050565b6000611450826113e5565b61145a81856113f0565b935061146a818560208601611401565b61147381611434565b840191505092915050565b60008115159050919050565b6114938161147e565b82525050565b6000610100820190506114af600083018b611395565b6114bc602083018a6113d6565b6114c960408301896113d6565b6114d66060830188611395565b6114e36080830187611395565b81810360a08301526114f58186611445565b905061150460c083018561148a565b61151160e083018461148a565b9998505050505050505050565b600080fd5b600080fd5b7f4e487b7100000000000000000000000000000000000000000000000000000000600052604160045260246000fd5b61156082611434565b810181811067ffffffffffffffff8211171561157f5761157e611528565b5b80604052505050565b600061159261131e565b905061159e8282611557565b919050565b600067ffffffffffffffff8211156115be576115bd611528565b5b6115c782611434565b9050602081019050919050565b82818337600083830152505050565b60006115f66115f1846115a3565b611588565b90508281526020810184848401111561161257611611611523565b5b61161d8482856115d4565b509392505050565b600082601f83011261163a5761163961151e565b5b813561164a8482602086016115e3565b91505092915050565b61165c816113c4565b811461166757600080fd5b50565b60008135905061167981611653565b92915050565b6000806040838503121561169657611695611328565b5b600083013567ffffffffffffffff8111156116b4576116b361132d565b5b6116c085828601611625565b92505060206116d18582860161166a565b9150509250929050565b600067ffffffffffffffff8211156116f6576116f5611528565b5b602082029050602081019050919050565b600080fd5b600061171f61171a846116db565b611588565b9050808382526020820190506020840283018581111561174257611741611707565b5b835b8181101561176b57806117578882611353565b845260208401935050602081019050611744565b5050509392505050565b600082601f83011261178a5761178961151e565b5b813561179a84826020860161170c565b91505092915050565b6000602082840312156117b9576117b8611328565b5b600082013567ffffffffffffffff8111156117d7576117d661132d565b5b6117e384828501611775565b91505092915050565b600060208201905061180160008301846113d6565b92915050565b600081519050919050565b600082825260208201905092915050565b6000819050602082019050919050565b61183c81611332565b82525050565b61184b816113c4565b82525050565b600082825260208201905092915050565b600061186d826113e5565b6118778185611851565b9350611887818560208601611401565b61189081611434565b840191505092915050565b6118a48161147e565b82525050565b6000610100830160008301516118c36000860182611833565b5060208301516118d66020860182611842565b5060408301516118e96040860182611842565b5060608301516118fc6060860182611833565b50608083015161190f6080860182611833565b5060a083015184820360a08601526119278282611862565b91505060c083015161193c60c086018261189b565b5060e083015161194f60e086018261189b565b508091505092915050565b600061196683836118aa565b905092915050565b6000602082019050919050565b600061198682611807565b6119908185611812565b9350836020820285016119a285611823565b8060005b858110156119de57848403895281516119bf858261195a565b94506119ca8361196e565b925060208a019950506001810190506119a6565b50829750879550505050505092915050565b60006020820190508181036000830152611a0a818461197b565b905092915050565b600060208284031215611a2857611a27611328565b5b6000611a368482850161166a565b91505092915050565b7f4e487b7100000000000000000000000000000000000000000000000000000000600052602260045260246000fd5b60006002820490506001821680611a8657607f821691505b60208210811415611a9a57611a99611a3f565b5b50919050565b7f526563697069656e742063616e6e6f7420626520746865207a65726f2061646460008201527f7265737300000000000000000000000000000000000000000000000000000000602082015250565b6000611afc6024836113f0565b9150611b0782611aa0565b604082019050919050565b60006020820190508181036000830152611b2b81611aef565b9050919050565b7f4e487b7100000000000000000000000000000000000000000000000000000000600052601160045260246000fd5b6000611b6c82611332565b9150611b7783611332565b9250817fffffffffffffffffffffffffffffffffffffffffffffffffffffffffffffffff0483118215151615611bb057611baf611b32565b5b828202905092915050565b7f4e487b7100000000000000000000000000000000000000000000000000000000600052601260045260246000fd5b6000611bf582611332565b9150611c0083611332565b925082611c1057611c0f611bbb565b5b828204905092915050565b6000602082019050611c306000830184611395565b92915050565b7f5265656e7472616e637947756172643a207265656e7472616e742063616c6c00600082015250565b6000611c6c601f836113f0565b9150611c7782611c36565b602082019050919050565b60006020820190508181036000830152611c9b81611c5f565b9050919050565b7f4e487b7100000000000000000000000000000000000000000000000000000000600052603260045260246000fd5b6000611cdc82611332565b9150611ce783611332565b9250827fffffffffffffffffffffffffffffffffffffffffffffffffffffffffffffffff03821115611d1c57611d1b611b32565b5b828201905092915050565b6000611d3282611332565b91507fffffffffffffffffffffffffffffffffffffffffffffffffffffffffffffffff821415611d6557611d64611b32565b5b600182019050919050565b7f4e6f20657468657220746f207265636c61696d2e000000000000000000000000600082015250565b6000611da66014836113f0565b9150611db182611d70565b602082019050919050565b60006020820190508181036000830152611dd581611d99565b9050919050565b600081905092915050565b50565b6000611df7600083611ddc565b9150611e0282611de7565b600082019050919050565b6000611e1882611dea565b9150819050919050565b7f4661696c656420746f2073656e642065746865722e0000000000000000000000600082015250565b6000611e586015836113f0565b9150611e6382611e22565b602082019050919050565b60006020820190508181036000830152611e8781611e4b565b9050919050565b7f4f776e61626c653a206e6577206f776e657220697320746865207a65726f206160008201527f6464726573730000000000000000000000000000000000000000000000000000602082015250565b6000611eea6026836113f0565b9150611ef582611e8e565b604082019050919050565b60006020820190508181036000830152611f1981611edd565b9050919050565b7f4f776e61626c653a2063616c6c6572206973206e6f7420746865206f776e6572600082015250565b6000611f566020836113f0565b9150611f6182611f20565b602082019050919050565b60006020820190508181036000830152611f8581611f49565b905091905056fea2646970667358221220d8972ecc71ef0b728f5bcfe931846a6413c60d02f2deae4ec9d88ddee6bfa07364736f6c63430008090033",
  "linkReferences": {},
  "deployedLinkReferences": {}
}